:100000000C9475010C949D010C949D010C94FE19A7
:100010000C94FE190C94FE190C949D010C9400197B
:100020000C949D010C949D010C949D010C949D01D8
:100030000C949D010C949D010C949D010C949D01C8
:100040000C94B4190C949D010C9482190C945C19B5
:100050000C949D010C949D010C949D010C949D01A8
:100060000C94761A0C949D0125642E25642E25642B
:100070002E25640044617461207061636B65742097
:1000800073656E64206572726F7220283229004495
:10009000617461207061636B65742073656E6420A8
:1000A0006572726F72202831290041542B434950E8
:1000B00053454E443D25642C2575004661696C65A9
:1000C0006420746F20777269746520746F20736F79
:1000D000636B65740041542B434950434C4F534567
:1000E0003D256400446973636F6E6E656374696E69
:1000F00067200041542B43495053544154555300F9
:100100002B4349505354415455533A25642C0045D0
:100110006E6420746167206E6F7420666F756E6404
:10012000004E6F2074616720666F756E64003E3EFE
:100130003E2054494D454F5554203E3E3E00000060
:100140000000240027002A000D0A0053444B2076AB
:10015000657273696F6E3A0041542B474D520041EE
:10016000542B4357444843503D312C310041542BCC
:1001700043574155544F434F4E4E3D300041542B51
:1001800043495044494E464F3D310041542B434969
:10019000504D55583D310041542B43574D4F444528
:1001A0003D3100415445300041542B5253540049D5
:1001B0006E6974696C697A6174696F6E20737563B6
:1001C0006365737366756C202D005761726E696E7E
:1001D000673A20556E737570706F7274656420662F
:1001E00069726D776172650043616E6E6F7420692C
:1001F0006E697469616C697A6520455350206D6F32
:1002000064756C6500415400496E697469616C697C
:100210007A696E6720455350206D6F64756C650078
:100220000D0A005354415455533A0041542B43494D
:1002300050535441545553004E6F20736F636B6598
:100240007420617661696C61626C650041542B4376
:10025000495053544152543D25642C22544350225A
:100260002C222573222C257500436F6E6E656374F6
:10027000696E6720746F0054494D454F55543A00DC
:1002800054616720434C4F534544206E6F74206681
:100290006F756E6400000000080002010000030496
:1002A0000700000000000000000200000000230022
:1002B0002600290000000000250028002B0004046F
:1002C00004040404040402020202020203030303FE
:1002D00003030102040810204080010204081020DA
:1002E000010204081020C51B951B11241FBECFEF6F
:1002F000D8E0DEBFCDBF13E0A0E0B1E0ECEFF8E660
:1003000002C005900D92AE32B107D9F725E0AEE2FA
:10031000B3E001C01D92AF3EB207E1F711E0C4E7C0
:10032000D1E004C02197FE010E946332C337D10798
:10033000C9F70E94951D0C9471340C94000081E45F
:1003400080937C0080917A00806480937A00809111
:100350007A0086FDFCCF8091780090917900089515
:100360008091610490916204DC01ED91FC91008424
:10037000F185E02D09951816190664F48091610441
:1003800090916204DC01ED91FC910284F385E02DF3
:100390000995E6CF0895CF92DF92EF92FF92CF9327
:1003A000DF93B0916A05A0E08111AB2F80916B05BE
:1003B00090E0880F991FAC0146555D4FC0907005C5
:1003C000D0907105E0907205F090730530E020E068
:1003D000FA01C591D491E881B90190E080E0EB2366
:1003E000EA130AC02F5F3F4F6C157D058E059F05F0
:1003F00078F36FEF7FEFCB01DF91CF91FF90EF901C
:10040000DF90CF90089508950895FC0124813581EF
:100410006217730748F480819181009729F0860F55
:10042000971FFC018081089580E00895DC011496F7
:100430002D913C9115976217730728F4ED91FC916B
:10044000E60FF71F408308950895DC01ED91FC91BC
:100450000190F081E02D0994DB0114964D915C919F
:1004600015976D917C91DC01ED91FC910280F381F7
:10047000E02D0994EF92FF920F931F93CF93DF9398
:100480008C017B01D0E0C0E0F701EC0FFD1F64910F
:10049000662361F0D801ED91FC910190F081E02D8F
:1004A000C8010995892B11F02196EECFCE01DF917D
:1004B000CF911F910F91FF90EF900895AF92BF924F
:1004C000CF92DF92EF92FF920F931F93CF93DF9320
:1004D0006C017B018B01040F151FEB015E01AE184F
:1004E000BF08C017D10759F06991D601ED91FC9171
:1004F0000190F081E02DC6010995892B79F7C5019E
:10050000DF91CF911F910F91FF90EF90DF90CF90EF
:10051000BF90AF900895FC01538D448D252F30E09E
:10052000842F90E0821B930B541710F0CF96089500
:1005300001970895FC01918D828D981761F0A28D2D
:10054000AE0FBF2FB11D5D968C91928D9F5F9F73F3
:10055000928F90E008958FEF9FEF0895FC01918DA9
:10056000828D981731F0828DE80FF11D858D90E016
:1005700008958FEF9FEF0895FC01918D228D892FB3
:1005800090E0805C9F4F821B91098F73992708959B
:1005900084E794E00E94BC0221E0892B09F420E06A
:1005A000822F089580E090E0892B29F00E94C802F4
:1005B00081110C9400000895FC01A48DA80FB92F9F
:1005C000B11DA35ABF4F2C91848D90E001968F737B
:1005D0009927848FA689B7892C93A089B1898C919A
:1005E000837080648C93938D848D981306C00288E9
:1005F000F389E02D80818F7D80830895EF92FF92B3
:100600000F931F93CF93DF93EC0181E0888F9B8D35
:100610008C8D98131AC0E889F989808185FF15C0EF
:100620009FB7F894EE89FF896083E889F989808112
:100630008370806480839FBF81E090E0DF91CF91E1
:100640001F910F91FF90EF900895F62E0B8D10E003
:100650000F5F1F4F0F731127E02E8C8D8E110CC072
:100660000FB607FCFACFE889F989808185FFF5CFBD
:10067000CE010E94DC02F1CFEB8DEC0FFD2FF11DBE
:10068000E35AFF4FF0829FB7F8940B8FEA89FB89FA
:1006900080818062CFCFCF93DF93EC01888D882358
:1006A000B9F0AA89BB89E889F9898C9185FD03C0D5
:1006B000808186FD0DC00FB607FCF7CF8C9185FFBA
:1006C000F2CF808185FFEDCFCE010E94DC02E9CF21
:1006D000DF91CF910895833081F028F4813099F033
:1006E0008230A9F008958730A9F08830C9F08430AD
:1006F000B1F4809180008F7D03C0809180008F775E
:1007000080938000089584B58F7784BD089584B563
:100710008F7DFBCF8091B0008F778093B0000895DC
:100720008091B0008F7DF9CF1F93CF93DF93282F57
:1007300030E0F901EB56FD4F8491F901EE52FD4F87
:10074000D491F901E254FD4FC491CC23A9F0162FA6
:1007500081110E946B03EC2FF0E0EE0FFF1FEC54B1
:10076000FD4FA591B4918FB7F894EC91111108C089
:10077000D095DE23DC938FBFDF91CF911F91089539
:10078000DE2BF8CF90913E0189130BC0E9EAF2E02D
:10079000E4919FEF90933E01E13049F028F0E23080
:1007A00061F060E00C94940310926E00FACF909187
:1007B0006F009D7F90936F00F4CF909170009D7FAC
:1007C0009093700091E09093B0009091B100987F69
:1007D00094609093B1001092B300E3CFCF93DF9376
:1007E00090E0FC01EE52FD4F249182549D4FFC019C
:1007F00084918823C9F090E0880F991FFC01E25C86
:10080000FE4FA591B491FC01EC54FD4FC591D491DC
:1008100061110DC09FB7F8948C91209582238C9321
:100820008881282328839FBFDF91CF91089562306C
:1008300051F49FB7F8943C91822F809583238C9339
:10084000E8812E2BEFCF8FB7F894EC912E2B2C93C1
:100850008FBFEACF8F929F92AF92BF92CF92DF92DB
:10086000EF92FF92CF934C0180913E018A3069F064
:100870008F3F09F480C0CF91FF90EF90DF90CF9031
:10088000BF90AF909F908F900895E9EAF2E0C491F5
:10089000C7FDF1CF61E08AE00E94EE03CC2319F09E
:1008A000C23009F0D7C0B12CA12C60E072E18AE718
:1008B00090E0A50194010E94BF3069017A0168E4CB
:1008C00078EE81E090E0A50194010E94BF302150B4
:1008D000310941095109CC2309F420C1C23009F082
:1008E0001BC184E02F3F310541055105A9F1A4F159
:1008F00064E274EF80E090E0A50194010E94BF30B3
:10090000215031094109510985E02F3F3105410549
:10091000510511F108F162E17AE780E090E0A5016C
:1009200094010E94BF30215031094109510986E0EC
:100930002F3F31054105510579F074F08AE0F594B7
:10094000E794D794C7948A95D1F7A70196012150CF
:1009500031094109510987E09091B100987F892BB5
:100960008093B100C13009F4A0C0C23009F4B2C014
:10097000C11181CFF1C08AE080933E01E9EAF2E043
:10098000C491CF3F09F477CFC13021F150F0C2308C
:1009900009F43EC0C7FD6FCF61E08AE00E94EE031C
:1009A0007FCF14BC15BC84B5826084BD85B58160E1
:1009B00085BDE8ECF2E0E491F0E0EE0FFF1FEC54AF
:1009C000FD4F85919491ECEDF2E0E491E0936704A2
:1009D000C0E060CF10928000109281008091810071
:1009E0008860809381008091810081608093810084
:1009F000E8ECF2E0E491F0E0EE0FFF1FEC54FD4F65
:100A000085919491ECEDF2E0E491E093660442CF9D
:100A10001092B0001092B1008091B000826080937B
:100A2000B0008091B10081608093B100E8ECF2E009
:100A3000E491F0E0EE0FFF1FEC54FD4F859194918F
:100A40009093650480936404ECEDF2E0E491E0930C
:100A5000630420CFB12CA12C60E072E18AE790E022
:100A6000A50194010E94BF3021503109410951096B
:100A700091E02115310581E0480751056CF068E4EB
:100A800078EE81E090E0A50194010E94BF302150F2
:100A900031094109510993E0C13009F063CF8091D8
:100AA0008100887F892B8093810030938900209377
:100AB00088008FEF9FEFDC0180936C0490936D04AE
:100AC000A0936E04B0936F0480916F008260809356
:100AD0006F00D1CE2093B3008FEF9FEFDC018093A6
:100AE000680490936904A0936A04B0936B048091A6
:100AF0007000826080937000BECE9AE0F594E79417
:100B0000D794C7949A95D1F7A7019601215031093E
:100B10004109510995E01CC084E0F7CE93E02F3FD6
:100B2000310541055105A1F09CF062E17AE780E0D2
:100B300090E0A50194010E94BF3021503109410984
:100B400051092F3F31054105510509F0B4F694E0F4
:100B500085B5887F892B85BD27BD8FEF9FEFDC0191
:100B60008093700490937104A0937204B093730403
:100B700080916E00826080936E007DCECF93DF9374
:100B8000CFE8D5E061E089810E94EE0360E08981D1
:100B90000E94940361E088810E94940361E089814E
:100BA0000E94940360E08981DF91CF910C94EE0361
:100BB00060E0809190050E94EE0361E080918F05D6
:100BC0000E94940380919005811101C0FFCF60E0E5
:100BD00080918F050C949403CF93DF93CFE8D5E0F9
:100BE00061E089810E94EE0360E088810E949403A5
:100BF00061E089810E94940361E088810E949403EE
:100C000060E088810E94940360E08981DF91CF9148
:100C10000C94EE033FB7F8948091B7039091B8031A
:100C2000A091B903B091BA0326B5A89B05C02F3F88
:100C300019F00196A11DB11D3FBFBA2FA92F982F02
:100C40008827BC01CD01620F711D811D911D42E0FD
:100C5000660F771F881F991F4A95D1F708958F92C5
:100C60009F92AF92BF92CF92DF92EF92FF926B0171
:100C70007C010E940A064B015C01C114D104E1040D
:100C8000F104B9F00E940A06681979098A099B09DA
:100C9000683E73408105910580F321E0C21AD108B6
:100CA000E108F10888EE880E83E0981EA11CB11CB3
:100CB000E4CFFF90EF90DF90CF90BF90AF909F90E8
:100CC0008F9008952FB7F8946091B3037091B40397
:100CD0008091B5039091B6032FBF0895CF92DF9214
:100CE000EF92FF920F931F93CF93DF93CDB7DEB7B1
:100CF000C054D1400FB6F894DEBF0FBECDBF0E94E6
:100D0000620600916C0510916D0520916E05309181
:100D10006F056B017C01C01AD10AE20AF30A970140
:100D20008601003D17402105310590F4809174053E
:100D3000C05CDE4F0FB6F894DEBF0FBECDBFDF91B3
:100D4000CF911F910F91FF90EF90DF90CF9008957A
:100D500060936C0570936D0580936E0590936F059D
:100D60001092670510926605109265051092640551
:100D70001092630562E0809168050E94EE0361E0D5
:100D800070E080E090E00E942F0661E080916805AD
:100D90000E94EE0360E0809168050E9494038091B8
:100DA00069058551823020F58BE291E10197F1F7D9
:100DB00062E0809168050E94EE038091750590E0E5
:100DC0008230910538F0880F991F880F991F059779
:100DD0000197F1F7F89480E00E94CB016F3F7F4FBD
:100DE0008F4F9F4F61F410927405789480E0A0CFEC
:100DF00064E170E080E090E00E942F06D9CF81E0AE
:100E00000E94CB016F3F7F4F8F4F9F4F61F38E0149
:100E10000F5F1F4F6E012FEBC21A2EEFD20A78011F
:100E200080E00E94CB01F70160837183828393830A
:100E300081E00E94CB01F7016483758386839783E9
:100E4000F8E0EF0EF11CEC14FD0451F7789430E05B
:100E500020E0F801C080D180E280F3804481558198
:100E600066817781FFEFCF16DF06EF06FF0631F0D0
:100E70004F3F8FEF58076807780719F410927405F1
:100E8000B5CFF90183E0F595E7958A95E1F7ED593E
:100E9000FA4F8081880FC416D506E606F70610F1D2
:100EA00080832F5F3F4F085F1F4F2832310589F63F
:100EB000409167052091630580916405280F3327D1
:100EC000331F80916505280F311D80916605820FC3
:100ED000932F911D99274817190681F681E0809379
:100EE000740526CF8160DCCF0F931F93CF93DF93E0
:100EF000EC010E946206688779878A879B87E88170
:100F0000F9810484F585E02DCE01099597FF15C080
:100F10000E946206088519852A853B85601B710B36
:100F2000820B930B0C811D812E813F81601771070D
:100F30008207930720F38FEF9FEFDF91CF911F91EF
:100F40000F910895BF92CF92DF92EF92FF920F938D
:100F50001F93CF93DF938C01C8010E947407EC01AB
:100F600097FD5DC0D801ED91FC910284F385E02DE1
:100F70008D32910521F0C0970A9708F04AC0C12C24
:100F8000D12C7601B12CC130D105D9F0CD32D105AB
:100F900009F442C0CE01C0970A9798F4AAE0B0E0E5
:100FA000A70196010E94DE306E01DD0FEE08FF08FA
:100FB000C60ED71EE81EF91EB0E3CB1AD108E10811
:100FC000F108D801ED91FC910284F385E02DC80170
:100FD0000995C8010E947407EC01C0970A9798F21E
:100FE000C130D10581F2BB2041F0F094E094D0945F
:100FF000C094C11CD11CE11CF11CC701B601DF91DA
:10100000CF911F910F91FF90EF90DF90CF90BF9005
:101010000895C8010995A0CFBB24B394D2CFC12CA9
:10102000D12C7601EACF20913B0530913C05281761
:10103000390771F49091BB038091BC03981741F07C
:10104000E091BB03F0E0EE58FC4F808190E0089502
:101050008FEF9FEF08950895EF92FF920F931F93E4
:10106000CF93DF93DC015C96ED90FC905D97E114EB
:10107000F10479F481E090E013969C938E9312979B
:1010800090E080E0DF91CF911F910F91FF90EF9062
:1010900008955196ED91FC91529750968C915097EE
:1010A000982F90950FB75E962C915E97122F127025
:1010B00021FD6095F8942081112319F1282B2083BC
:1010C000E7012197F1F728E0462F50E0308160FFDB
:1010D0001AC0382B3083E7012197F1F7BA017595D3
:1010E0006795215089F7112381F0808189238083BE
:1010F0000FBF5C968D919C910197F1F781E090E094
:10110000C1CF2923DCCF3923E5CF9081892BEFCFC5
:1011100020913B0530913C052817390761F48091F7
:10112000BC032091BB0390E0805C9F4F821B910920
:101130008F739927089590E080E0089520913B05F2
:1011400030913C0528173907B9F49091BB03809181
:10115000BC03981789F0E091BB03F0E0EE58FC4F18
:1011600080812091BB0330E02F5F3F4F2F733327E7
:101170002093BB0390E008958FEF9FEF08958F9227
:101180009F92AF92BF92CF92DF92EF92FF920F9316
:101190001F93CF93DF934091EB035091EC03609149
:1011A000ED037091EE03141615061606170644F4A7
:1011B0009091EA03981709F417C1992309F414C10F
:1011C000F82E8091610490916204DC01ED91FC9114
:1011D0000084F185E02D0995892B19F450E040E059
:1011E00003C10091610410916204D0E0C0E00E944C
:1011F0006206F8016087718782879387D801ED9135
:10120000FC910284F385E02DC801099597FF47C042
:101210000E946206F80180849184A284B3846819D4
:1012200079098A099B0984809580A680B780681512
:1012300079058A059B0510F3D1CFC1E0D0E0D7CF67
:101240004F0149EB51E0209791F2BE012197D40163
:101250002E914D01022E000C330B8217930729F0BB
:10126000209729F24F5F5F4FF0CF209731F36A014B
:10127000BFEFCB1ADB0AA9EBB1E030E020E0BD9074
:10128000F601E1906F01BE1005C02F5F3F4F2C1794
:101290003D07A8F3C217D30729F7EB01A8CFFE013A
:1012A000E754FE4F2081022E000C330B8217930768
:1012B00039F62196C530D10509F099CF80916104A6
:1012C000909162040E94A2076093EA0380916104F6
:1012D00090916204DC01ED91FC910284F385E02D94
:1012E000099580916104909162040E94A207609325
:1012F000EB037093EC038093ED039093EE038091E6
:10130000610490916204DC01ED91FC910284F3850B
:10131000E02D099580916104909162040E94A207DA
:101320008091610490916204DC01ED91FC91028452
:10133000F385E02D099580916104909162040E94EB
:10134000A2078091610490916204DC01ED91FC910F
:101350000284F385E02D09958091610490916204E7
:101360000E94A2078091610490916204DC01ED91DA
:10137000FC910284F385E02D0995809161049091A0
:1013800062040E94A2078091610490916204DC01D2
:10139000ED91FC910284F385E02D09958091610423
:1013A00090916204DC01ED91FC910284F385E02DC3
:1013B000099580916104909162040E94A207809136
:1013C000610490916204DC01ED91FC910284F3854B
:1013D000E02D09958091EA03F81611F0F110FECE88
:1013E0004091EB035091EC03CA01DF91CF911F9123
:1013F0000F91FF90EF90DF90CF90BF90AF909F90B4
:101400008F90089521E0FC0184858F3F09F420E04E
:10141000822F0895CF93DF93EC01E881F981008456
:10142000F185E02DCE010995892B41F0E881F98104
:101430000284F385E02DCE010995EFCFDF91CF91A6
:1014400008958F929F92AF92BF92EF92FF920F9367
:101450001F93CF93DF93EC017B018A01E881F9812F
:101460000084F185E02D0995892B69F48FEF9FEFBA
:10147000DF91CF911F910F91FF90EF90BF90AF90B0
:101480009F908F9008959C858091EA03981336C0B1
:101490008091EB039091EC03A091ED03B091EE03EA
:1014A000A80170E060E084179507A607B7070CF461
:1014B0008C01E701E00EF11EEC16FD06E9F00E943A
:1014C00062064B015C018091610490916204DC0131
:1014D000ED91FC910284F385E02D099597FF11C0F1
:1014E0000E946206681979098A099B09683E73405F
:1014F0008105910540F3BACFC801BACF80E090E0F2
:10150000B7CF89938091EB039091EC03A091ED0309
:10151000B091EE030197A109B1098093EB03909379
:10152000EC03A093ED03B093EE03C6CFFC018485DA
:101530008F3F21F00E94BF0897FF02C090E080E03B
:101540000895CF93DF931F92CDB7DEB76983DC0197
:10155000ED91FC910280F381E02D41E050E0BE016D
:101560006F5F7F4F09950F90DF91CF910895209184
:101570004F03260F3327331F21323105ECF420911E
:101580003704FC0190E080E0243069F082E00895A7
:10159000A0914F032191AC01415D5C4FA40FB52F89
:1015A000B11D2C930196861798F380914F03680F15
:1015B00060934F0380E0089581E00895109237040E
:1015C00081E0809336041092110461E082E10E9470
:1015D000940361E083E10E949403E9EBF0E08081F1
:1015E0008E7F808380818D7F808388E48093B800A4
:1015F00085E48093BC000895CF93DF9391E09093AE
:101600002E038823B9F0C091B800D091BA00809120
:10161000BC008A7B8093BC0060E082E10E9494035E
:1016200060E083E10E9494030E94DE0AD093BA0036
:10163000C093B800DF91CF9108958F929F92AF929F
:10164000BF92CF92DF92EF92FF920F931F93CF93AF
:10165000DF93D0916004D13208F0D7C0182FC09129
:101660005F040E940A066B017C018091370481119E
:101670006BC082E080933704109336048FEF809321
:10168000350410923404D0933304AFE3B4E0E3E1C3
:10169000F4E080E0D81391C01092120480911204FB
:1016A000CC0FC82BC093120480911104813009F033
:1016B00088C0109211040E940A066B017C0180917F
:1016C00012048093BB008091390490913A04A09158
:1016D0003B04B0913C04892B8A2B8B2BA1F00E94F8
:1016E0000A060091390410913A0420913B0430918C
:1016F0003C046C197D098E099F09061717072807F6
:10170000390708F442C08091BC0083FDD8CF85EC36
:101710008093BC000E940A066B017C018091370413
:10172000823009F450C0809135048F3F09F46FC0B6
:1017300080913504803209F46CC080913504803387
:1017400009F469C084E026C08091390490913A047C
:10175000A0913B04B0913C04892B8A2B8B2B09F47C
:1017600084CF0E940A068090390490903A04A09099
:101770003B04B0903C046C197D098E099F098616C4
:101780009706A806B90608F070CF809138040E9429
:10179000FC0A85E010923E041092600410923D0411
:1017A000DF91CF911F910F91FF90EF90DF90CF903D
:1017B000BF90AF909F908F9008959D9191938F5F70
:1017C00069CF85EEA5CF8091390490913A04A0911C
:1017D0003B04B0913C04892B8A2B8B2B09F49ECFC0
:1017E0000E940A060091390410913A0420913B04AA
:1017F00030913C046C197D098E099F090617170763
:101800002807390708F08ACFC0CF81E0C3CF80E036
:10181000C1CF82E0BFCF83E0BDCFDC0111968D91B7
:101820009C91DC01ED91FC910280F381E02D41E07F
:1018300050E00995019729F481E00E941D0B91E089
:10184000811190E0892F0895CF93DF93EC018B8174
:101850008823A1F0888191E090933D0480935F04F8
:1018600010923E041092600481E00E941D0B91E0F2
:10187000811190E0892FDF91CF9108951092F003AC
:101880001092EF0310923E04109260040E94DE0A50
:1018900083E092E09093C4038093C30384E092E0DA
:1018A0009093C6038093C50381E08B83CE010E9491
:1018B000240C982F8111CECFDDCFE091F0038091E1
:1018C000EF03E81730F4F0E0EF50FC4F808190E038
:1018D00008958FEF9FEF08959091F0038091EF03AB
:1018E0002FEF3FEF981748F4E92FF0E0EF50FC4F4F
:1018F000208130E09F5F9093F003C90108958091AB
:10190000EF039091F003891B990B0895CF92DF921A
:10191000EF92FF920F931F93CF93DF937C01CB0144
:101920008A0120913D04222389F0EB016B01C40E52
:10193000D51ECC15DD0569F06991D701ED91FC91BB
:101940000190F081E02DC7010995F3CF642F0E942B
:10195000B70AC801DF91CF911F910F91FF90EF90CF
:10196000DF90CF900895CF93DF931F92CDB7DEB76E
:10197000698320913D042223F9F0209160042032F4
:1019800058F021E030E0FC013383228390E080E0D6
:101990000F90DF91CF91089580913E04E82FF0E001
:1019A000E15CFB4F998190838F5F80933E0480932D
:1019B000600481E090E0ECCF61E0CE0101960E94EE
:1019C000B70AF7CF90E080E008952F923F924F92B0
:1019D0005F926F927F928F929F92AF92BF92CF92BF
:1019E000DF92EF92FF920F931F93CF93DF93DC016F
:1019F0001496ED91FC911597EF2B09F422C1690122
:101A00002A01EC01888191E090933D0480935F046A
:101A100010923E0410926004CD010E940D0C782EAD
:101A2000882309F40EC1F12CE12C332433948C81EA
:101A30009D8186010E191F098017910708F48C01FA
:101A400028800E940A064B015C01809137048111B5
:101A500073C0602EB0E2B01710F480E2682E3092AE
:101A6000370421E0C601801B910BE816F90608F443
:101A700020E020933604EFEFE09335041092340415
:101A80008FEF860D809333043092120480911204FC
:101A9000220C282A2092120480911104813009F02E
:101AA00090C0109211040E940A064B015C018091C3
:101AB00012048093BB008091390490913A04A09164
:101AC0003B04B0913C04892B8A2B8B2BA1F00E9404
:101AD0000A062091390430913A0440913B04509118
:101AE0003C04681979098A099B09261737074807B2
:101AF000590708F442C08091BC0083FDD8CFF5ECB3
:101B0000F093BC000E940A064B015C0180913704EF
:101B1000813009F45AC080913404861510F4609025
:101B20003404A3E1B4E0E1EFF3E080E0861551F185
:101B30009D9191938F5FFACF8091390490913A04EF
:101B4000A0913B04B0913C04892B8A2B8B2B09F488
:101B50007CCF0E940A062091390430913A044091CA
:101B60003B0450913C04681979098A099B0926179E
:101B700037074807590708F068CF809138040E945A
:101B8000FC0A612C1092F0036092EF0360161106BC
:101B900009F057C042018E0C9F1C5401C5018819E1
:101BA00099098017910798F589819A81DC01ED9157
:101BB000FC910284F385E02D0995F50181935F0185
:101BC000EDCF85EE8093BC009DCF8091390490913C
:101BD0003A04A0913B04B0913C04892B8A2B8B2BB7
:101BE00009F494CF0E940A062091390430913A04F6
:101BF00040913B0450913C04681979098A099B097A
:101C0000261737074807590708F080CFB6CFE00EF0
:101C1000F11EEC14FD0408F40ACF872DDF91CF915B
:101C20001F910F91FF90EF90DF90CF90BF90AF90FA
:101C30009F908F907F906F905F904F903F902F90EC
:101C40000895712CEACFCF93DF9300D01F92CDB7C8
:101C5000DEB78B8322E030E0AE014F5F5F4FBE0105
:101C60006D5F7F4F80917605909177050E94E50C1E
:101C700089819A819827892798270F900F900F9034
:101C8000DF91CF9108950F931F93CF93DF9300D0EF
:101C9000CDB7DEB78EE28A8384EF89830091760523
:101CA00010917705D80114968D919C911597029704
:101CB00010F111968D919C9112972C9131E03093F7
:101CC0003D0420935F0410923E0410926004DC01F6
:101CD000ED91FC910280F381E02D41E050E0BE01E6
:101CE0006F5F7F4F0995019731F4BE016E5F7F4FA3
:101CF000C8010E940D0C65E070E080E090E00E9459
:101D00002F0686EF0E94230E0F900F90DF91CF9148
:101D10001F910F9108950F931F93CF93DF93082F77
:101D2000162FD42FC8E06D2F661F6627661F802FE1
:101D30000E949403DD0F61E0812F0E94940360E014
:101D4000812F0E949403C15071F7DF91CF911F91B1
:101D50000F9108951F93CF93DF93182FCFE8D5E00D
:101D600061E089810E94EE03412F68818981DF91C2
:101D7000CF911F910C948B0E1F93CF93DF93182F4D
:101D8000CFE8D5E061E089810E94EE0361E08981BE
:101D90000E94940361E088810E94940360E089813D
:101DA0000E94940360E088810E949403412F68811F
:101DB0008981DF91CF911F910C948B0ECF93DF938C
:101DC000D82FC62F80ED0E94BC0E0E94D8058D2F03
:101DD0000E94AA0E0E94D8058C2F0E94AA0E0E9473
:101DE000D805DF91CF910C94BE05FF920F931F93FE
:101DF000CF93DF9360E0809190050E94EE03C7E0EF
:101E0000D0E000E061E080918F050E949403209172
:101E1000900530E0F901EB56FD4F8491F901EE5247
:101E2000FD4FF490F901E254FD4F1491112331F16B
:101E300081110E946B03E12FF0E0EE0FFF1FE655CA
:101E4000FD4FA591B491EC91FE2231E009F430E010
:101E5000832F0C2E01C0880F0A94EAF7082B60E04C
:101E600080918F050E949403219708F0CBCF802F9B
:101E7000DF91CF911F910F91FF90089580E0E9CFFE
:101E8000CF93DF93EC0160E08E810E94940361E0C8
:101E90008E810E94940360E08E810E9494038BE8FF
:101EA00091E00197F1F7DF91CF910895CF92DF9202
:101EB000EF92FF920F931F93CF93DF936C017C01FE
:101EC00087E0E80EF11CD0E0C0E0062F10E0B8017A
:101ED0000C2E02C0759567950A94E2F76170F701C0
:101EE00081917F010E9494032196C430D10579F736
:101EF000C601DF91CF911F910F91FF90EF90DF907E
:101F0000CF900C94400FCF92DF92EF92FF920F93FD
:101F10001F93CF93DF93EC01F62E642F8C810E94E8
:101F200094038D818F3F19F060E00E9494030F2D80
:101F300010E08F8584FF25C06E0187E0C80ED11C9C
:101F4000F12CE12CB8010E2C02C0759567950A940E
:101F5000E2F76170F60181916F010E949403FFEF37
:101F6000EF1AFF0A88E0E816F10461F7CE01DF916D
:101F7000CF911F910F91FF90EF90DF90CF900C9435
:101F8000400FB80184E0759567958A95E1F7CE0119
:101F90000E94560F6F2DCE01DF91CF911F910F91AF
:101FA000FF90EF90DF90CF900C94560F40E0682F99
:101FB00089E995E00C94830F81E00E94D60F8BE3B2
:101FC0009FE10197F1F70895CF93DF93823029F4D1
:101FD0009091A80598609093A8058093AC05109205
:101FE000AD0580E48093AE0580E18093AF0580E588
:101FF0008093B00561E080919D050E94EE03809181
:102000009E058F3F19F061E00E94EE0361E0809130
:102010009F050E94EE03C9E9D5E09E01295935408C
:102020008091A80584FD0BC084E090E021962817DC
:10203000390744F461E08E810E94EE03EECF88E020
:1020400090E0F4CF8BE39DE00197F1F760E08091A1
:102050009D050E94940360E080919F050E94940377
:1020600080919E058F3F19F060E00E94940380915B
:10207000A80584FD34C063E089E995E00E94560F0D
:10208000CBE4D6E4CE010197F1F763E089E995E06E
:102090000E94560F2197F1F763E089E995E00E94CD
:1020A000560F83E592E00197F1F762E089E995E048
:1020B0000E94560F8091A80580620E94D60F84E08E
:1020C0008093A9058CE00E94D60F0E94DC0F82E06D
:1020D0008093AA0586E0DF91CF910C94D60F8062A1
:1020E0000E94D60F8BE496E40197F1F78091A80542
:1020F00080620E94D60F83E592E00197F1F780910C
:10210000A80580620E94D60FD5CF643008F063E046
:102110009091AC05691710F06FEF690FE62FF0E0B2
:10212000E756FA4F9489890F80680C94D60F0C9467
:10213000851041E00E94830F81E090E008950F93A5
:102140001F93CF93DF938B0128E0829FC00111245E
:1021500080640E94D60FE801085F1F4F699189E9EA
:1021600095E00E949910C017D107C1F7DF91CF9178
:102170001F910F910895FC0101900020E9F731971C
:102180009F01281B390BE091E905F091EA05E21B5C
:10219000F30B4091E5055091E605E417F50730F49F
:1021A0006091E3057091E405E60FF71F280F391FD2
:1021B0006091E7057091E805DC018217930758F4F8
:1021C0000196BC91A081BA1308C03196E617F707B3
:1021D00099F7FA01F1CF81E0089580E00895FB01BD
:1021E00001900020E9F73197AF01461B570BDC0146
:1021F000ED91FC910280F381E02D0994CF93DF9360
:10220000BC0184E794E00E942C02EC0161ED71E0D6
:1022100084E794E00E94EF108C0F9D1FDF91CF9117
:1022200008958F929F92AF92BF92EF92FF920F9379
:102230001F93CF93DF93CDB7DEB7A1970FB6F89476
:10224000DEBF0FBECDBF7C01FA01CB0119A2223047
:1022500008F42AE08E010F5D1F4F822E912CB12CC5
:10226000A12CBF01A50194010E949D30F901CA0172
:102270006A300CF5605DD8016E938D01232B242B01
:10228000252B79F790E080E0109721F0BD01C70180
:102290000E94EF10A1960FB6F894DEBF0FBECDBF1F
:1022A000DF91CF911F910F91FF90EF90BF90AF9072
:1022B0009F908F900895695CDECFCF92DF92EF926E
:1022C000FF920F931F93CF93DF9377FF1DC06A0197
:1022D0007B01EC016DE20E9425028C014427552709
:1022E000BA014C195D096E097F092AE0CE010E94EE
:1022F0001111800F911FDF91CF911F910F91FF90CE
:10230000EF90DF90CF9008952AE0DF91CF911F9159
:102310000F91FF90EF90DF90CF900C941111AB01D3
:1023200070E060E02AE00C9411118F929F92AF92BE
:10233000BF92CF92DF92EF92FF920F931F93CF93B2
:10234000DF937C018B016C0182E0C80ED11C470138
:10235000E5E08E0E911CD0E0C0E0F60141916F01E6
:1023600050E070E060E02AE0C8010E9411115C01B9
:102370006EE2C8010E9425028A0D9B1DC80FD91F5D
:10238000C814D90451F7F701458150E070E060E0CE
:102390002AE0C8010E9411118C0F9D1FDF91CF917F
:1023A0001F910F91FF90EF90DF90CF90BF90AF9073
:1023B0009F908F9008950F931F93CF93DF938C017D
:1023C000D0E0C0E06115710519F00E94EF10EC013A
:1023D00061ED71E0C8010E94EF108C0F9D1FDF912D
:1023E000CF911F910F9108950F931F93CF93DF9378
:1023F000EC010E943A028C0161ED71E0CE010E9475
:10240000EF10800F911FDF91CF911F910F910895D1
:102410000C94EF103F924F925F926F927F928F9247
:102420009F92AF92BF92CF92DF92EF92FF920F9363
:102430001F93CF93DF936C012B01342E8091E50520
:102440009091E6059093EA058093E9050E94620663
:102450004B015C0166246A94762C0D2C000CEE086E
:10246000FF080E946206681979098A099B096C15A0
:102470007D058E059F0508F05BC08FEF6816780616
:1024800009F056C08091610490916204DC01ED91E5
:10249000FC910084F185E02D0995892B11F3809141
:1024A000610490916204DC01ED91FC910284F3855A
:1024B000E02D0995E091E905F091EA05808380918E
:1024C000E9059091EA0501969093EA058093E90564
:1024D0002091E7053091E8058217930740F080913D
:1024E000E5059091E6059093EA058093E90541148E
:1024F000510441F0C2010E94BB10882319F085E00D
:10250000682E712C332009F4ACCF09E411E0D0E03F
:10251000C0E0F801819191918F010E94BB1081115F
:1025200005C02196C530D105A1F79BCF3E0199CFBB
:102530000E946206681979098A099B096C157D0554
:102540008E059F0560F06FEB71E084E794E00E94D8
:1025500008126EE271E084E794E00E94F411C30176
:10256000DF91CF911F910F91FF90EF90DF90CF906F
:10257000BF90AF909F908F907F906F905F904F90A3
:102580003F900895CF93DF93EC010E94B001BE010C
:1025900080916104909162040E94F41141E070E026
:1025A00060E088EE93E0DF91CF910C940A12AF9235
:1025B000BF92CF92DF92EF92FF920F931F93CF9330
:1025C000DF93B82EEB01A42E89010E9462066B01F5
:1025D0007C018091610490916204DC01ED91FC9199
:1025E0000084F185E02D0995892B09F47EC0809146
:1025F000610490916204DC01ED91FC91AA20E9F064
:102600000484F585E02D099588838091EB039091F2
:10261000EC03A091ED03B091EE03892B8A2B8B2B59
:1026200029F181E0DF91CF911F910F91FF90EF9001
:10263000DF90CF90BF90AF9008950284F385E02D96
:10264000099588838091EB039091EC03A091ED03B1
:10265000B091EE030197A109B1098093EB03909328
:10266000EC03A093ED03B093EE03CFCF65E070E0F1
:1026700080E090E00E942F068091610490916204B6
:10268000DC01ED91FC910084F185E02D0995892B09
:1026900041F28091610490916204DC01ED91FC9122
:1026A0000484F585E02D09952B2D30E0205D3F4F0A
:1026B0008217930709F0B5CF40E06AEC71E084EF30
:1026C00091E00E940A12059761F06FEB71E084E7D8
:1026D00094E00E94081260E872E084E794E00E94AF
:1026E000F41181E0F80180839DCF0E9462066C198D
:1026F0007D098E099F09603D77408105910508F4A9
:1027000068CF6FEB71E084E794E00E94081267E7FE
:1027100072E084E794E00E943A0266EB72E084E79C
:1027200094E00E9408124091EB035091EC036091F9
:10273000ED037091EE0384E794E00E945D1161ED7A
:1027400071E084E794E00E94EF101092EB03109286
:10275000EC031092ED031092EE031092EA0318823C
:1027600080E060CF0F931F93CF93DF9300D0CDB75E
:10277000DEB78C01DC01ED91FC910084F185E02D48
:102780000995892B59F11A82F80184859091EA0301
:10279000891309C09E012E5F3F4F40E0BE016F5F6D
:1027A0007F4F0E94D7128A81882379F0D8011C9626
:1027B000EC911C97F0E0EE0FFF1FEA5CFE4F8FEFED
:1027C0009FEF918380831C968C93898190E00F907A
:1027D0000F90DF91CF911F910F9108958FEF9FEF91
:1027E000F6CF0F931F93CF93DF9300D0CDB7DEB713
:1027F0008C01DC01ED91FC910084F185E02D0995BF
:10280000892B59F11A82F80184859091EA03891382
:1028100009C09E012E5F3F4F41E0BE016F5F7F4FB9
:102820000E94D7128A81882379F0D8011C96EC91F6
:102830001C97F0E0EE0FFF1FEA5CFE4F8FEF9FEF5B
:10284000918380831C968C93898190E00F900F90E8
:10285000DF91CF911F910F9108958FEF9FEFF6CFEA
:10286000CF93DF93EC0188819981009711F00E944A
:102870000533198218821D821C821B821A82DF9105
:10288000CF910895FC0180819181009711F00C9403
:10289000053308950F931F93CF93DF938C01EB01C2
:1028A000FC01808191810097E1F068817981611557
:1028B0007105A9F0428153812C813D814217530754
:1028C00070F00E945B348C819D81F8019583848334
:1028D0001D821C82DF91CF911F910F9108950E945C
:1028E000053388819981F801918380838A819B8156
:1028F000938382838C819D8195838483198218823E
:102900001B821A82E5CF0F931F93CF93DF93EC01C5
:1029100088819981009759F02A813B8126173707D2
:1029200030F081E0DF91CF911F910F9108958B01DD
:102930006F5F7F4F0E948E33009759F09983888391
:102940001B830A832C813D81232B59F7FC011082C4
:10295000E8CF80E0E7CFEF92FF920F931F93CF93E2
:10296000DF936115710541F480E0DF91CF911F91F4
:102970000F91FF90EF90089541155105B1F07B0143
:10298000EC010C811D81040F151FB8010E948314F6
:10299000882351F3288139818C819D81B701820F71
:1029A000931F0E945B341D830C8381E0DECFCF93A5
:1029B000DF93EC01FB0101900020E9F73197AF01B3
:1029C000461B570B0E94AB14811103C0CE010E941D
:1029D0003014CE01DF91CF910895CF93DF93EC01B6
:1029E000FB0144815581608171810E94AB1481118A
:1029F00003C0CE010E943014CE01DF91CF91089523
:102A0000EF92FF920F931F93CF93DF93EC017B0123
:102A10008A01BA010E94831481110BC0CE010E9469
:102A20003014CE01DF91CF911F910F91FF90EF9065
:102A300008951D830C83B701888199810E945B34BE
:102A4000F0CFEF92FF920F931F93CF93DF93CDB709
:102A5000DEB762970FB6F894DEBF0FBECDBF8C0114
:102A6000CB01F80111821082138212821582148226
:102A70004AE09E012F5F3F4F7901B9010E94652C0A
:102A8000F70101900020E9F73197AF014E195F0976
:102A9000B701C8010E94001562960FB6F894DEBF18
:102AA0000FBECDBFDF91CF911F910F91FF90EF909F
:102AB0000895CF93DF93EC01FB018617970749F048
:102AC000608171816115710541F0448155810E94D9
:102AD0000015CE01DF91CF9108950E943014F9CFF7
:102AE000FC0111821082138212821582148265E524
:102AF00075E00C945915FC01118210821382128228
:102B000015821482FB0101900020E9F73197AF0193
:102B1000461B570B0C940015CF93DF93CDB7DEB750
:102B2000C85CD1090FB6F894DEBF0FBECDBF9E01C1
:102B30002F523F4FC353DF4F48815981CD5CD04066
:102B400068EC70E0CE0101960E94C22C0E94B00198
:102B5000BE016F5F7F4F80916104909162040E947B
:102B6000DB1141E070E060E0C153DF4F8881998163
:102B7000CF5CD0400E940A12C853DF4F0FB6F894C2
:102B8000DEBF0FBECDBFDF91CF910895EF92FF92D0
:102B90000F931F93CF93DF93EC01162F072FF42E83
:102BA000E52E6FEB71E084E794E00E94081269E67D
:102BB00072E084E794E00E943A0266EB72E084E7F8
:102BC00094E00E940812612F702F84E794E00E9425
:102BD000DB11E6E3F1E083E090E0268137812F3FCF
:102BE0003F4F31F0019732978F3F9807B1F78FEF42
:102BF0008C878F3F69F1EF92FF920F931F931F9283
:102C00008F9383E18F9388E88F938CE492E09F9376
:102C10008F930E948C152DB73EB7265F3F4F0FB69E
:102C2000F8943EBF0FBE2DBF892BF1F48C8590E048
:102C3000FC01EE0FFF1FEA5CFE4F9183808381E071
:102C400090E0DF91CF911F910F91FF90EF90089549
:102C50006FEB71E084E794E00E94081268E372E091
:102C600084E794E00E94F41190E080E0EACF0C94B5
:102C7000C615CF93DF93FC0124852F3F09F440C094
:102C8000EC016FEB71E084E794E00E94081264EEBF
:102C900070E084E794E00E943A0266EB72E084E719
:102CA00094E00E9408124C8550E070E060E02AE059
:102CB00084E794E00E94111161ED71E084E794E0F3
:102CC0000E94EF108C851F928F938FE08F9380EA84
:102CD0008F9385ED90E09F938F930E948C15EC85E8
:102CE000F0E0EE0FFF1FEA5CFE4F8FEF9FEF918346
:102CF00080838C870F900F900F900F900F900F9004
:102D0000DF91CF910895AF92BF92CF92DF92EF9271
:102D1000FF920F931F93CF93DF935C016B017A01B6
:102D2000E90118820E94B001B5018091610490917F
:102D300062040E94F41141E0B60188EE93E00E9423
:102D40000A128530910509F058C08091E5059091EF
:102D5000E6059093EA058093E9054091E3055091DB
:102D6000E4054F5F5F4F70E060E00E94543441E043
:102D7000B70184EF91E00E940A12059781F5A8013E
:102D800041505109F70101900020E9F73197EE1900
:102D9000FF096091E5057091E6058091E905909144
:102DA000EA05861B970B8E1B9F0B4817590708F0E7
:102DB000AC01CE010E94623441E070E060E080ED41
:102DC00097E00E940A1281E0DF91CF911F910F914D
:102DD000FF90EF90DF90CF90BF90AF9008956FEB92
:102DE00071E084E794E00E9408126FE071E084E7EC
:102DF00094E00E94F41180E0E7CF0597E0F36FEBD9
:102E000071E084E794E00E94081261E271E0EFCF84
:102E10004F925F926F927F928F929F92AF92BF92EA
:102E2000CF92DF92EF92FF920F931F93CF93DF9396
:102E3000CDB7DEB74C016B015A0139014DB65EB614
:102E4000CB010E945C2C01962DB73EB7281B390B95
:102E50000FB6F8943EBF0FBE2DBF8DB79EB701963B
:102E60007C01B6010E94552CC5010E945C2C019684
:102E70002DB73EB7281B390B0FB6F8943EBF0FBED7
:102E80002DBF8DB79EB701966C01B5010E94552CE0
:102E90009301A601B701C4010E9483160FB6F894EE
:102EA0005EBE0FBE4DBEDF91CF911F910F91FF907F
:102EB000EF90DF90CF90BF90AF909F908F907F90DA
:102EC0006F905F904F900895CF92DF92EF92FF92B4
:102ED0000F931F93CF93DF93CDB7DEB76E970FB6E7
:102EE000F894DEBF0FBECDBFFC0184858F3FD1F1CA
:102EF0007F010E94BF08892B21F5D7011C968C9178
:102F00001F928F9380E091E09F938F93FE01319603
:102F10006F01FF93EF930E949F2C0AE010E09E0147
:102F20002B5E3F4F4DEB51E0B60183EF90E00E94E6
:102F300083160F900F900F900F900F900F90882393
:102F400011F094E010C0D7011C96EC911C97F0E0B2
:102F5000EE0FFF1FEA5CFE4F8FEF9FEF91838083A0
:102F60001C968C9390E081E0943009F080E06E969E
:102F70000FB6F894DEBF0FBECDBFDF91CF911F918A
:102F80000F91FF90EF90DF90CF900895AF92BF9296
:102F9000CF92DF92EF92FF920F931F93CF93DF9325
:102FA000CDB7DEB764970FB6F894DEBF0FBECDBFC6
:102FB0007C015B018A01DC011C968C91843018F441
:102FC00041155105C9F481E090E0F70193838283B4
:102FD00010E000E0C80164960FB6F894DEBF0FBEA3
:102FE000CDBFDF91CF911F910F91FF90EF90DF90B8
:102FF000CF90BF90AF9008951F934F931F928F93E0
:103000008AEA90E09F938F939E012F5F3F4F690163
:103010003F932F930E949F2CB60180916104909161
:1030200062040E94DB1140E064ED71E088EE93E001
:103030000E940A120FB6F894DEBF0FBECDBF0597EF
:1030400009F443C06FEB71E084E794E00E9408123A
:103050006FE870E084E794E00E94F41181E090E072
:10306000F701938382836FEB71E084E794E00E9421
:1030700008126BEB70E084E794E00E943A0266EB82
:1030800072E084E794E00E940812D7011C964C91EC
:1030900050E070E060E02AE084E794E00E941111C3
:1030A00061ED71E084E794E00E94EF1060EA7FE058
:1030B00080E090E00E942F06D701ED91FC910488FA
:1030C000F589E02DC701099583CF80916104909126
:1030D0006204DC01ED91FC910280F381E02DA801F6
:1030E000B501099541E070E060E080ED97E00E9455
:1030F0000A12039709F46ECF6FEB71E084E794E056
:103100000E94081264E770E0A5CFCF92DF92EF92A1
:10311000FF920F931F93CF93DF93CDB7DEB76097E6
:103120000FB6F894DEBF0FBECDBF7C01FB016A0174
:1031300085811F928F9384811F928F9383811F9229
:103140008F9382811F928F9388E690E09F938F9355
:103150008E010F5F1F4F1F930F930E949F2CA6019C
:10316000B801C7010E94C6150FB6F894DEBF0FBEA6
:10317000CDBF60960FB6F894DEBF0FBECDBFDF9116
:10318000CF911F910F91FF90EF90DF90CF90089516
:1031900085ED8093BC008091390490913A04A09110
:1031A0003B04B0913C040796A11DB11D23E0B695E8
:1031B000A795979587952A95D1F72091BC0024FD76
:1031C00003C01092370408954091390450913A0495
:1031D00060913B0470913C04452B462B472B69F3CF
:1031E0000097A105B10541F02AE22A95F1F700C048
:1031F0000197A109B109E1CF809138040C94FC0A30
:103200001F920F920FB60F9211242F933F934F935B
:103210005F936F937F938F939F93AF93BF93EF933E
:10322000FF938091680490916904A0916A04B09121
:103230006B04892B8A2B8B2BD1F190916304E09145
:103240006404F091650480818927808380916804FB
:1032500090916904A0916A04B0916B041816190644
:103260001A061B069CF48091680490916904A09151
:103270006A04B0916B040197A109B10980936804B5
:1032800090936904A0936A04B0936B04FF91EF914B
:10329000BF91AF919F918F917F916F915F914F916E
:1032A0003F912F910F900FBE0F901F901895809116
:1032B0003E010E94C203EACF1F920F920FB60F92F7
:1032C00011242F933F934F935F936F937F938F932B
:1032D0009F93AF93BF93EF93FF9384E794E00E9493
:1032E000DC02FF91EF91BF91AF919F918F917F9100
:1032F0006F915F914F913F912F910F900FBE0F9063
:103300001F9018951F920F920FB60F9211242F93B2
:103310008F939F93EF93FF93E0918404F091850442
:103320008081E0918A04F0918B0482FD1BC0908122
:1033300080918D048F5F8F7320918E04821741F0EE
:10334000E0918D04F0E0EC58FB4F958F80938D0455
:10335000FF91EF919F918F912F910F900FBE0F9042
:103360001F9018958081F4CF1F920F920FB60F9285
:1033700011242F933F938F939F93AF93BF9380918B
:10338000B3039091B403A091B503B091B60330910B
:10339000B20323E0230F2D3758F50196A11DB11D6F
:1033A0002093B2038093B3039093B403A093B50327
:1033B000B093B6038091B7039091B803A091B9037D
:1033C000B091BA030196A11DB11D8093B7039093EC
:1033D000B803A093B903B093BA03BF91AF919F9183
:1033E0008F913F912F910F900FBE0F901F901895C6
:1033F00026E8230F0296A11DB11DD2CF1F920F9276
:103400000FB60F9211242F933F934F935F936F93B7
:103410007F938F939F93AF93BF93EF93FF93E0912D
:103420003B05F0913C05309749F0A685B785858529
:10343000968D91FF14C09C918923A1F4FF91EF9187
:10344000BF91AF919F918F917F916F915F914F91BC
:103450003F912F910F900FBE0F901F9018959C9148
:10346000892361F7A389B4899C91858980958923F3
:103470008C93868997890197F1F7608D718DA68568
:10348000B785558538E020E0CB010197F1F7822F11
:1034900090E095958795282F4C91452309F0206859
:1034A000315091F7868D81FD20958091BC0390E08D
:1034B00001968F7399273091BB03381799F0A0912B
:1034C000BC03B0E0AE58BC4F2C938093BC03828DFC
:1034D000938D0197F1F7A389B4898C919589892BF4
:1034E0008C93ACCF868D8160868FF1CF1F920F9227
:1034F0000FB60F9211242F933F934F935F936F93C7
:103500007F938F939F93AF93BF93EF93FF9380919C
:10351000B900887F803609F44AC0F0F5883209F492
:10352000A7C018F5803109F49BC0B8F4882309F4CA
:10353000F9C0883009F494C0FF91EF91BF91AF9129
:103540009F918F917F916F915F914F913F912F91BB
:103550000F900FBE0F901F901895883109F488C006
:10356000803251F78093350414C0803409F49DC033
:1035700040F48033B9F38833F9F68093350485EC51
:10358000B0C0803509F485C0883509F496C0883408
:1035900099F60E94C818D0CF883909F48CC038F544
:1035A000883729F050F4883611F0803729F683E007
:1035B000809337041092710357C0883809F47BC098
:1035C000803919F0803809F0B7CF809171038032CB
:1035D00008F071C0E091710381E08E0F8093710358
:1035E0008091BB00F0E0EF5AFC4F80833DC0803BF0
:1035F00039F0E0F4803A09F479C0883A09F09CCFB8
:1036000084E0809337041092500310924F03E091AE
:10361000C303F091C403099580914F0381110FC03A
:1036200081E080934F0310922F0309C0803C09F47E
:10363000A6CF883C09F4A3CF883B09F07DCFE09169
:10364000500381E08E0F80935003F0E0E15DFC4F6A
:1036500080818093BB009091500380914F0329C0DB
:10366000809112048093BB0085EC8093BC0064CFF2
:103670009091340480913304981758F5E091340404
:1036800081E08E0F80933404F0E0ED5EFB4F80818B
:10369000E9CFE091340481E08E0F8093340480916F
:1036A000BB00F0E0ED5EFB4F80839091340480918D
:1036B00033049817C8F285E8D8CFE091340481E04C
:1036C0008E0F809334048091BB00F0E0ED5EFB4FE1
:1036D00080838091360481115CCF81E08093110456
:1036E00084EA8093BC001092370426CF85EC809347
:1036F000BC001092370480917103803230F4E09165
:103700007103F0E0EF5AFC4F10826091710370E09A
:10371000E091C503F091C60381E593E0099510920D
:1037200071030ACF1092350434CF83E495E00E94F0
:1037300042148DE395E00E94421489E495E00E94D2
:1037400042148FE495E00E94421485E595E00E94C2
:1037500042148BEA91E09093BF058093BE0580915F
:103760003B0590913C058E5B954071F4E091D1054D
:10377000F091D20590818091D30580958923808333
:1037800010923C0510923B050895CF92DF92EF9284
:10379000FF92CF93DF93109277041092760498EE05
:1037A000C92E93E0D92EE12CF12CC0927804D0924E
:1037B0007904E0927A04F0927B0487E591E090939B
:1037C00075048093740485EC90E090938104809359
:1037D000800484EC90E0909383048093820480ECD6
:1037E00090E0909385048093840481EC90E0909322
:1037F00087048093860482EC90E090938904809300
:10380000880486EC90E090938B0480938A04109255
:103810008D0410928E0410928F0410929004C5EAC9
:10382000D1E0D0931205C0931105109213051092A8
:103830001405109215051092160580E290E0909301
:10384000E4058093E30581E290E00E946932909361
:10385000E6058093E5059C01205E3F4F3093E80527
:103860002093E7059093EA058093E90521E2FC01A6
:1038700011922A95E9F7D0931805C0931705109275
:10388000190510921A0510921B0510921C05D09371
:103890001E05C0931D0510921F0510922005109261
:1038A000210510922205D0932405C0932305109280
:1038B0002505109226051092270510922805D09311
:1038C0002A05C093290510922B0510922C05109201
:1038D0002D0510922E051092320510923105C092DE
:1038E0003305D0923405E0923505F092360589E62D
:1038F00091E09093300580932F05D093DE05C0931F
:10390000DD051092DF051092E0051092E10510929E
:10391000E2051092C1051092C005C092C205D09276
:10392000C305E092C405F092C5058BEA91E090933F
:10393000BF058093BE051092D5051092D405109254
:10394000D7051092D6051092D9051092D80510927D
:10395000DB051092DA056091DC056E7F6D7F609368
:10396000DC056695617081E068278CE00E94940315
:1039700061E08CE00E94EE03EEEDF2E0E491E09372
:10398000CE05EAECF2E0E491F0E0EE0FFF1FEC541C
:10399000FD4F859194919093D0058093CF0560E081
:1039A0008DE00E94EE038091DC0581FD04C061E0A2
:1039B0008DE00E9494038DE08093CA05EFEDF2E064
:1039C000E491E093CB05EBECF2E0E491F0E0EE0F54
:1039D000FF1FE655FD4F859194919093CD058093FF
:1039E000CC051092B4051092B30588EE93E0A0E0E8
:1039F000B0E08093B5059093B605A093B705B0935A
:103A0000B80587E891E09093B2058093B1058FEFF8
:103A10008093BD0510929C0510929B052BE731E029
:103A200030939A0520939905C5E0C0939D05809336
:103A30009E0584E080939F0589E08093A00588E03F
:103A40008093A10587E08093A20586E08093A3057B
:103A50001092A4051092A5051092A6051092A70534
:103A60001092A80581E00E94E40F82E08093900507
:103A700083E080938F0561E00E94EE03109277054A
:103A8000109276058AE0809368058BE08093690543
:103A9000ECEDF2E0E491E0936A05E8ECF2E0E49109
:103AA000E0936B0580E89EE3A0E0B0E080937005B2
:103AB00090937105A0937205B09373058AED97E01A
:103AC000909361058093600581E080935F0580930A
:103AD0005E0510925B0510925C0510925D05C09327
:103AE000620566ED71E085E595E00E947B1566ED67
:103AF00071E08FE495E00E947B1566ED71E089E44A
:103B000095E00E947B1563ED71E08DE395E00E94E6
:103B10007B1563ED71E083E495E0DF91CF91FF9039
:103B2000EF90DF90CF900C947B15CF93DF93CDB7C0
:103B3000DEB769970FB6F894DEBF0FBECDBF78949D
:103B400084B5826084BD84B5816084BD85B58260A2
:103B500085BD85B5816085BD80916E008160809353
:103B60006E001092810080918100826080938100BC
:103B700080918100816080938100809180008160CC
:103B8000809380008091B10084608093B100809127
:103B9000B00081608093B00080917A00846080934F
:103BA0007A0080917A00826080937A0080917A0016
:103BB000816080937A0080917A00806880937A0097
:103BC0001092C100E0918404F091850402E000832A
:103BD000E0918004F09181041082E0918204F091E0
:103BE00083048FEC808310928C04E0918804F09120
:103BF000890416E01083E0918604F09187048081A7
:103C000080618083E0918604F091870480818860E0
:103C10008083E0918604F0918704808180688083AE
:103C2000E0918604F091870480818F7D808382E01B
:103C30000E94E40F70E060E090E080E00E94971046
:103C400069ED71E089E995E00E94081261E070E099
:103C500090E080E00E94971066EE71E089E995E0BF
:103C60000E940812E0918404F09185040083E091A1
:103C70008004F09181041082E0918204F091830429
:103C800080E1808310928C04E0918804F091890493
:103C90001083E0918604F0918704808180618083A5
:103CA000E0918604F0918704808188608083E091B0
:103CB0008604F0918704808180688083E091860487
:103CC000F091870480818F7D80831092D9051092B6
:103CD000D8051092D7051092D6051092D5051092EE
:103CE000D4058DE991E09093DB058093DA059091FE
:103CF000CA05963108F047C02DEB30E03093D5056A
:103D00002093D4052BE931E03093D7052093D605D5
:103D10002CE231E03093D9052093D805209168003A
:103D200084E0983048F031E09E3008F430E081E0E3
:103D300001C0880F3A95EAF7822B809368002DE640
:103D400030E0983050F02BE630E09E3030F02CE63A
:103D500030E0963110F030E020E03093D20520932F
:103D6000D105292F30E0983008F073C081E001C000
:103D7000880F9A95EAF78093D3058091DA059091A0
:103D8000DB050197F1F78091D8059091D905892B32
:103D900049F1E0913B05F0913C0525E0EE3BF2074F
:103DA00009F1309739F0A389B4899C918589809570
:103DB00089238C938091DC058E7F8093DC051092A3
:103DC000BC031092BB038EEB95E090933C0580936F
:103DD0003B05E091D105F091D20580819091D3050A
:103DE000892B80836FEB71E084E794E00E940812D6
:103DF00068E072E084E794E00E94F4118EEB95E0B5
:103E0000909362048093610405E010E085E092E005
:103E10000E94C212892B11F40C94072B68EE73E0F8
:103E200080E090E00E942F060150110979F76FEBB6
:103E300071E084E794E00E94081268EE71E084E784
:103E400094E00E94F41168E873E180E090E00C9443
:103E50006C2B9E3040F42850310981E001C0880F5E
:103E60002A95EAF788CF2E503109F7CF6FEB71E032
:103E700084E794E00E9408126FEA71E084E794E01E
:103E80000E943A0266EB72E084E794E00E94081216
:103E90006DEB73E084E794E00E94DB1164EF71E066
:103EA00080E090E00E942F060E94DC0F0AE010E004
:103EB0009E012F5F3F4F40E252E063E272E08BE2EF
:103EC00092E00E94081781111FC070E060E090E04E
:103ED00080E00E9497106FEE71E089E995E00E9402
:103EE000081261E070E090E080E00E9497106EEFB1
:103EF00071E089E995E00E9408126AE072E084E7C7
:103F000094E00E94DB11FFCF68E171E080E00E9445
:103F10009F1060E171E081E00E949F1068E071E015
:103F200082E00E949F1060E071E083E00E949F1099
:103F300080ED0E94BC0E0E94D80580E00E94AA0E6F
:103F40000E94D8050E94BE0581ED0E94BC0E0E9411
:103F5000D8050E94F50E182F0E94EC050E94BE05A0
:103F6000612F6F7780E00E94DE0E0E94DC0F70E010
:103F700060E090E080E00E94971062E272E089E9E0
:103F800095E00E94081261E070E090E080E00E94FD
:103F900097106FE272E089E995E00E94081268E3E9
:103FA00072E089E995E00E94081283E08093780529
:103FB0008091760590917705009709F050C186E0D1
:103FC00090E00E9469328C0187E7D8018C938FE2E0
:103FD00095E012969C938E93119713961C921397CB
:103FE00080E290E015969C938E931497109377053A
:103FF000009376051092F0031092EF0310923E04A6
:10400000109260040E94DE0A83E092E09093C40361
:104010008093C30384E092E09093C6038093C5032A
:1040200081E0F8018383C8010E94240C898F8823D2
:1040300009F418C180ED8C8B21E030E0AE014F5FB8
:104040005F4FBE016C5E7F4F809176059091770542
:104050000E94E50C8981853509F004C18AEA0E9435
:10406000230E90937A05809379058CEA0E94230EA3
:1040700090937C0580937B058EEA0E94230E90939B
:104080007E0580937D0580EB0E94230E90938A0528
:104090008093890582EB0E94230E90938C05809378
:1040A0008B0584EB0E94230E90938E0580938D05E3
:1040B00086EB0E94230E9093800580937F0588EB0A
:1040C0000E94230E90938205809381058AEB0E94C3
:1040D000230E90938405809383058CEB0E94230E1E
:1040E00090938605809385058EEB0E94230E909316
:1040F00088058093870562E0809168050E94EE0341
:104100000E946206605D77408109910960936C05A9
:1041100070936D0580936E0590936F0587E3809390
:10412000750590E080E00E94773090E09093D50391
:104130008093D40383E090E00E947730682F70E092
:104140007093D7036093D60384E794E00E948F11A5
:1041500061ED71E084E794E00E94EF1068EE73E097
:1041600080E090E00E942F060E9462061B012C0155
:104170009B01AC0160E070E080E090E0A090CC0397
:10418000B090CD03C090CE03D090CF03E090D00389
:10419000F090D1030091D2031091D3030E945132C9
:1041A000A0902001B0902101C0902201D090230165
:1041B000E0902401F0902501009126011091270143
:1041C0000E945A3209F00CF4CAC02092CC033092FB
:1041D000CD034092CE035092CF031092D0031092A1
:1041E000D1031092D2031092D3030E949F018C013D
:1041F0008936F1E09F070CF046C0873991050CF035
:10420000E4C397FD49C04F970CF00FC362E772E01B
:1042100084E794E00E94DB118091DE038823E1F1C2
:104220008091C8039091C90387309105A8F59C013E
:104230002F5F3F4F2230310509F4F1C2253031059F
:1042400009F4EDC23093C9032093C80370E060E025
:104250008091C8039091C9030E9497101DC00E94CD
:104260000533ADCE0E94DC0F42E55FE460E070E014
:1042700089E995E00E945D116EE372E084E794E0C5
:104280000E94DB11FFCF883122E092070CF42AC490
:10429000893F92400CF444C40F5111090A34114073
:1042A00008F05DC08091DE03882309F458C070E0F7
:1042B00060E090E080E00E949710CE0101960E949D
:1042C000701565EA72E0CE0101960E94D7146FE482
:1042D00075E00E94ED1465EA72E00E94D71469E46B
:1042E00075E00E94ED140E94FE10CE0101960E941E
:1042F0004214CE0101960E94701565EA72E0CE016B
:1043000001960E94D7146FE475E00E94ED1465EAEF
:1043100072E00E94D71469E475E00E94ED14BC01BC
:1043200089E995E00E942C02CE0101960E94421478
:1043300061E070E090E080E00E94971067EA72E030
:1043400089E995E00E94081270E060E08091C8035E
:104350009091C9030E94971081E08093C7030E9447
:1043600062061B012C019B01AC0160E070E080E063
:1043700090E0A0902801B0902901C0902A01D0902F
:104380002B01E0902C01F0902D0100912E01109155
:104390002F010E94513228383341410551056105F2
:1043A00071058105910509F00CF461C5E2E0F0E0CA
:1043B000F0933101E09330012092280130922901DD
:1043C00040922A0150922B0110922C0110922D0143
:1043D00010922E0110922F010E94430E9C0150E07A
:1043E00040E080918D0590918E05281B390B410985
:1043F0005109A0918B05B0918C050E94DE306B01B4
:104400007C013FE0F594E794D794C7943A95D1F7AF
:104410006091850570918605072E000C880B990B1D
:104420004BE0660F771F881F991F4A95D1F720919F
:10443000870530918805032E000C440B550B2C0D7D
:104440003D1D4E1D5F1D0E94BF30CA01B9016C0D9C
:104450007D1D8E1D9F1D685F7F4F8F4F9F4F54E0C6
:1044600095958795779567955A95D1F70E947E2FF8
:1044700020E030E040E251E40E94A4310E94163274
:104480007093DD036093DC030E94430E6C01F12CFA
:10449000E12C809178058295880F880F807C8C5C58
:1044A0008B8B84EF8A8B0091760510917705D8016C
:1044B00014968D919C911597029710F111968D91FC
:1044C0009C9112972C9131E030933D0420935F042E
:1044D00010923E0410926004DC01ED91FC91028088
:1044E000F381E02D41E050E0BE016E5E7F4F099503
:1044F000019731F4BE016D5E7F4FC8010E940D0C23
:1045000080917805811132C465E070E080E090E030
:104510000E942F0686EF0E94230EB0E0A0E08824C0
:10452000982EA92EBA2E88EF898B21E030E0AE01BB
:104530004F5F5F4FBE016F5E7F4F80917605909118
:1045400077050E94E50C8981A5019401282B2D8B0C
:104550003E8B4F8B588F1091780580918D059091EF
:104560008E05A7019601281B390B41095109A0911D
:104570008B05B0918C050E94DE306B017C018FE0D1
:10458000F594E794D794C7948A95D1F760918505FF
:1045900070918605072E000C880B990B2BE0660F97
:1045A000771F881F991F2A95D1F720918705309191
:1045B0008805032E000C440B550B2C0D3D1D4E1D84
:1045C0005F1D0E94BF30C20ED31EE41EF51E30EAEE
:1045D000C31A3FE0D30AE108F108A7019601C70119
:1045E000B6010E948D302B013C016CE075946794FC
:1045F000579447946A95D1F7A0917D05B0917E05B7
:104600000E94E9304B015C017DE0B594A79497943A
:1046100087947A95D1F7A0917F05B0918005A30189
:1046200092010E94E9309C01552737FD5095452F96
:10463000280D391D4A1D5B1D2E5F3F4F4F4F5F4FA9
:10464000F2E05595479537952795FA95D1F730586B
:104650004F4F5F4FA0918905B0918A050E94DE30CF
:104660004B015C01AFE0B694A79497948794AA9508
:10467000D1F788E090E0811B91092D893E894F890F
:10468000588D04C056954795379527958A95D2F74A
:104690002D8B3E8B4F8B588FA0918105B091820559
:1046A000A30192010E94E9302B013C01BBE075940B
:1046B000679457944794BA95D1F7A0917B05B09130
:1046C0007C05A70196010E94E9300BE0959587953E
:1046D000779567950A95D1F7640D751D861D971D11
:1046E0004090790550907A05052C000C66087708F3
:1046F00022E0440C551C661C771C2A95D1F7640DEA
:10470000751D861D971D012E04C0660F771F881F1B
:10471000991F0A94D2F76E5F7F4F8F4F9F4F24E00F
:1047200030E040E050E00E94BF308D899E89AF8923
:10473000B88D821B930BA40BB50B9C01AD0160E5FA
:1047400073EC80E090E004C0969587957795679527
:104750001A95D2F70E948D3097FD1BC3660F771F05
:10476000881F991FA50194010E949D3069017A015B
:104770009927F7FC9A958F2D7E2D6D2D9B01AC010D
:104780000E948D309B01AC01AEEDBBE00E94DE309B
:104790004B015C01A3E4B3EEA70196010E94EC304B
:1047A000BC01992777FD9095892F4501BB2497FC83
:1047B000B094AB2C680D791D8A1D9B1D6153714F00
:1047C0008F4F9F4FA4E09595879577956795AA950C
:1047D000D1F76C0D7D1D8E1D9F1D0E947E2F28EE32
:1047E00037EC45EF5BE30E94B92F0E9416327093BD
:1047F000D9036093D8030E946E06882359F08091F4
:1048000069058B3038F08D3008F4CEC28551823086
:1048100008F417C360E070E080EC9FE7E1C2029605
:104820009093C9038093C80311CD68E772E084E7D1
:1048300094E00E94DB118091DE03882309F42CCDE3
:10484000E090C803F090C903E114F10409F041C0FD
:1048500070E060E085E595E00E940502D82E61E0F9
:1048600070E085E595E00E9405024D2DDD0C550BAD
:104870004F525109423051055CF085333CF044E31E
:1048800061E070E085E595E00E94160242E050E0AC
:10489000405D70E060E085E595E00E94160227E04B
:1048A000E216F10409F0F8CC61E070E089E495E0EB
:1048B0000E940502082E000C990BAC0140535109CF
:1048C0004930510514F44F5F5F4F405D61E070E087
:1048D00079C041E0E416F10431F561E070E085E56E
:1048E00095E00E940502D82E70E060E085E595E035
:1048F0000E9405022D2DDD0C330B2F52310982331E
:1049000041F444E084E090E02817390744F4422F52
:1049100006C049E0A9E0B0E02A173B07C4F3405DB8
:1049200061E070E0B8CFB3E0EB16F104A9F470E0F9
:1049300060E08FE495E00E940502082E000C990BC0
:10494000AC01405351094530510514F44F5F5F4F9E
:10495000405D70E060E018C0E4E0EE16F104C9F4D8
:1049600061E070E08FE495E00E940502082E000CE3
:10497000990BAC01405351094930510514F44F5F74
:104980005F4F405D61E070E08FE495E00E941602A9
:1049900083CCF6E0EF16F10409F081CF70E060E01F
:1049A00089E495E00E940502082E000C990BAC01E9
:1049B000405351094530510514F44F5F5F4F405D3E
:1049C00070E060E089E495E0E1CF6BE772E084E7B6
:1049D00094E00E94DB118091DE0381111AC0809166
:1049E000E803811159CC8091CA039091CB030196C1
:1049F0009093CB038093CA030B9708F44DCC81E0CE
:104A00008093E8038093E9031092CB031092CA03CA
:104A100043CCE090C803F090C903E114F10449F5D8
:104A200070E060E085E595E00E940502082E000C2C
:104A3000990B8133910544F04FEF480F70E060E02F
:104A400085E595E00E94160297E0E916F10409F069
:104A500023CC61E070E089E495E00E940502082E15
:104A6000000C990B813391050CF416CC4FEF480FD5
:104A70002DCF31E0E316F10489F461E070E085E5C3
:104A800095E00E940502082E000C990B81339105D8
:104A9000DCF24FEF480F61E070E0D2CF43E0E41664
:104AA000F10409F01DC670E060E08FE495E00E941B
:104AB0000502082E000C990B813391050CF4ECCB08
:104AC0004FEF480F46CF61E070E08FE495E00E9421
:104AD0000502082E000C990B4FEF480FC1970CF4FC
:104AE000DBCB50CF60E872E084E794E00E94DB11FA
:104AF0008091DE03882309F4CFCB8091C803909185
:104B0000C903009709F4C8CB9C0121503109223018
:104B1000310521F02530310509F094CB029780CE84
:104B200065E872E084E794E00E94DB118091DE0387
:104B3000811115C09091E803992389F08091CA03EF
:104B40009091CB0301969093CB038093CA030B976C
:104B500008F4A2CB1092E8030E94DC0F55CF91E03D
:104B600089278093DE036CE872E084E794E00E947A
:104B700008124091DE0350E070E060E084E794E0CA
:104B80000E945D1161ED71E084E794E00E94EF10F6
:104B90008091DE03882309F47AC088EC8093200199
:104BA00010922101109222011092230110922401EF
:104BB0001092250110922601109227011092C9032C
:104BC0001092C80370E060E090E080E00E949710CF
:104BD000CE0101960E94701565EA72E0CE01019641
:104BE0000E94D7146FE475E00E94ED1465EA72E04C
:104BF0000E94D71469E475E00E94ED140E94FE1033
:104C0000CE0101960E944214CE0101960E947015B9
:104C100065EA72E0CE0101960E94D7146FE475E058
:104C20000E94ED1465EA72E00E94D71469E475E011
:104C30000E94ED14BC0189E995E00E942C02CE018E
:104C400001960E94421461E070E090E080E00E94D2
:104C5000971067EA72E089E995E00E94081270E017
:104C600060E08091C8039091C9030E9497108091E1
:104C7000A905982F91609093A90589600E94D60F8D
:104C800064EF71E080E090E00E942F0605CB8091F8
:104C9000C7038823F9F08091490590914A05E12CDA
:104CA000009719F00E942E2CE62E80914F059091CE
:104CB0005005D12C009719F00E942E2CD62E8091F1
:104CC000550590915605009741F10E942E2C862F94
:104CD000683120F184EF8093200181E080932101ED
:104CE00010922201109223011092240110922501AA
:104CF00010922601109227018091A9058E7F809342
:104D0000A90588600E94D60F1092C9031092C803AB
:104D100070E060E090E080E09FCA80E05BE35D15BA
:104D2000C8F25E15B8F26AE0F62E6F2D0E94453289
:104D30008295807F682F690F82E00E94DE0E8D2DA4
:104D40006F2D0E9445328295807F682F690F81E028
:104D50000E94DE0E8E2D6F2D0E9445328295807F3F
:104D6000682F690F80E00E94DE0EB4CF813029F4F5
:104D700068E070E080E090E0CBCB823029F46EE018
:104D800070E080E090E0C4CB6AE170E080E090E009
:104D9000BFCBA50194010E949D3069017A01CC0C22
:104DA000DD1CEE1CFF1CE4CC6091640570E090E01B
:104DB00080E00E947E2F2DEC3CEC4CEC5DE30E94E9
:104DC000B92F6B017C016091630570E090E080E099
:104DD0000E947E2F9B01AC01C701B6010E943831B1
:104DE0000E9416327093DB036093DA032091D403A0
:104DF0003091D5038091DC039091DD0382179307F6
:104E000010F0232B81F59093D5038093D403298D43
:104E10004091D6035091D7034817590730F5909326
:104E2000D7038093D6031091D6036091D40390E00A
:104E300080E00E947F30612F83E090E00E947F300D
:104E400016C0609163057091640576276727762701
:104E500090E080E00E947C2F2DEC3CEC4CEC5DE37C
:104E60000E94B92FBDCF20E0D3CF2111DCCF0E940B
:104E700062061B012C019B01AC0160E070E080E048
:104E800090E0A090DF03B090E003C090E103D090E9
:104E9000E203E090E303F090E4030091E503109156
:104EA000E6030E945132283E334041055105610519
:104EB00071058105910509F00CF4CCC12092DF0346
:104EC0003092E0034092E1035092E2031092E30338
:104ED0001092E4031092E5031092E6038091DE0342
:104EE0008111B8C18091E8038111B4C18091300172
:104EF000909131018130910509F0F1C170E060E0DD
:104F000090E080E00E94971080ED0E94BC0E0E940D
:104F1000D80580E00E94AA0E0E94D8050E94BE0516
:104F200081ED0E94BC0E0E94D80561E9E62E65E085
:104F3000F62E10E000E00E94F50EF70181937F014C
:104F40000730110509F4BEC161E0809190050E940F
:104F5000EE0360E080918F050E94940360E08091F1
:104F600090050E94940361E080918F050E94940354
:104F700060E080918F050E94940360E0809190052D
:104F80000E94EE030F5F1F4F08301105A1F60E942B
:104F9000BE0580919105982F929597702AE08F70A9
:104FA000382F929F300D112480919205982F929561
:104FB00097708F70482F929F400D11245091930548
:104FC000852F90E0152F1F7057FF7FC155FB882755
:104FD00080F9FCE08F9F100D1124509194052091D1
:104FE0009505909196058091970510935B054093E8
:104FF0005C0530935D05422F429547703AE02F7073
:10500000439F200D112420935E05292F22952770A0
:105010009F70239F900D112490935F05982F929578
:105020009F708F70939F800D112490E08053984F54
:10503000909361058093600550936205E12EF12CF9
:10504000B701CE0101960E942115BE016F5F7F4F0F
:1050500085E595E00E944A14CE0101960E94421413
:105060001A30F8F4B701CE0101960E94211567EDC0
:1050700071E0CE010B960E947B15BE016F5F7F4FE2
:10508000CE010B960E94ED14BC0185E595E00E94CF
:105090005915CE010B960E944214CE0101960E9432
:1050A000421400915C0510E0B801CE0101960E9407
:1050B0002115BE016F5F7F4F8FE495E00E944A1477
:1050C000CE0101960E9442140A301105FCF4B80189
:1050D000CE0101960E94211567ED71E0CE010B967D
:1050E0000E947B15BE016F5F7F4FCE010B960E9421
:1050F000ED14BC018FE495E00E945915CE010B968A
:105100000E944214CE0101960E94421400915D0556
:1051100010E0B801CE0101960E942115BE016F5F1B
:105120007F4F89E495E00E944A14CE0101960E94C7
:1051300042140A301105FCF4B801CE0101960E9418
:10514000211567ED71E0CE010B960E947B15BE0123
:105150006F5F7F4FCE010B960E94ED14BC0189E476
:1051600095E00E945915CE010B960E944214CE0183
:1051700001960E944214CE0101960E94701565EAC4
:1051800072E0CE0101960E94D7146FE475E00E9490
:10519000ED1465EA72E00E94D71469E475E00E949C
:1051A000ED140E94FE10CE0101960E944214CE0121
:1051B00001960E94701565EA72E0CE0101960E9488
:1051C000D7146FE475E00E94ED1465EA72E00E9466
:1051D000D71469E475E00E94ED1466EB72E00E945A
:1051E000D714BC0189E995E00E942C02CE010196FA
:1051F0000E94421461E070E090E080E00E9497100D
:105200006091DC037091DD0389E995E00E948F11C4
:1052100068EB72E089E995E00E9408126091DA0378
:105220007091DB0389E995E00E948F116CEB72E0CD
:1052300089E995E00E9408126091D8037091D90322
:1052400089E995E00E948F1160EC72E089E995E0B0
:105250000E9408128091E903882309F474C00E9417
:10526000DC0F60E087E00E94851065EE72E089E95E
:1052700095E00E94081268EE73E080E090E00E94E2
:105280002F0688E592E00E942A0464E670E080E040
:1052900090E00E942F068AE00E94C2030E94DC0F69
:1052A0001092E90380E090E0892B11F40C94B42073
:1052B0000E94C802882311F40C94B4200E940000BC
:1052C0000C94B4200E94EC055DCE54E09595879532
:1052D0005A95E1F78370829F100D11247ECE0297BC
:1052E00009F0B8CF70E060E090E080E00E94971095
:1052F00064EC72E089E995E00E9408126091D6039F
:105300007091D70389E995E00E948F116FEC72E0EC
:1053100089E995E00E94081261E070E090E080E089
:105320000E94971064ED72E089E995E00E940812EE
:105330006091D4037091D50389E995E00E948F11A3
:105340006FED72E083CF8091E803882309F4AACF40
:105350000E94D62B23E030E040E050E00E94BF30B6
:105360006B017C012FEFC21AD20AE20AF20ABB24B7
:10537000B39433E0C31201C0B12C1FE00E94DC0FD4
:1053800060E080E00E948510409134015091350129
:10539000052E000C660B770B89E995E00E945D11E4
:1053A0000E949F012091E70301E0243038F49C0122
:1053B0002F5131092837310508F400E08851924017
:1053C000813E910530F51092E80304C08093E70315
:1053D0001150A1F680E293E00E942A0464E170E09B
:1053E00080E090E00E942F06809134019091350179
:1053F0000196909335018093340180913201909110
:105400003301C29797FDFEC0909333018093320120
:1054100049CF602F84E00E94851060E089E995E023
:105420000E9425026B2D812F0E94851082E390E05F
:105430000E942A046C2D89E995E00E9425028AE0E9
:105440000E94C203143009F0B4C0B012B2C060E9C7
:1054500071E080E090E00E942F0682E390E00E94DD
:105460002A0464E670E080E090E00E942F068AE063
:105470000E94C20364E670E080E090E00E942F0684
:1054800084E190E00E942A046CE271E080E090E008
:105490000E942F068AE00E94C2030E94DC0F68EC83
:1054A00070E080E090E00E942F0660E083E00E94C0
:1054B000851069EE72E089E995E00E94081268E5BE
:1054C00072E080E090E00E942F060E94DC0F60E90D
:1054D00071E080E090E00E942F0660E083E00E948F
:1054E000851069EE72E089E995E00E94081268E58E
:1054F00072E080E090E00E942F060E94DC0F61E0E5
:1055000083E00E94851064EF72E089E995E00E94D3
:1055100008124091340150913501052E000C660BA4
:10552000770B89E995E00E945D1160E971E080E008
:1055300090E00E942F0660E083E00E94851069EEF3
:1055400072E089E995E00E94081268EB7BE080E058
:1055500090E00E942F060E94DC0F60E087E00E942E
:10556000851065EE72E089E995E00E94081260E915
:1055700071E080E090E00E942F0688E592E00E94B2
:105580002A0464E670E080E090E00E942F068AE042
:105590000E94C2030E94DC0F109235011092340168
:1055A00040E951E050933301409332011092E703F8
:1055B00011CF011120C088EC90E00E942A0464E61B
:1055C00070E080E090E00E942F068AE00E94C20313
:1055D0006091320170913301072E000C880B990BFA
:1055E0000E942F068091E7038F5F853008F4EECE8E
:1055F0001092E703EDCE64E670E080E090E00E9458
:105600002F06E6CF10923301109232014BCE88EA7A
:1056100091E00E94C21268EB7BE080E090E00E9483
:105620002F060E94B00183EA91E00E94C21287E92E
:1056300091E00E94C21268EC70E080E090E00E946D
:105640002F068BE891E00E94C2128DE791E00E9444
:10565000C2128DE691E00E94C2128FE591E00E9495
:10566000C21268EC70E080E090E00E942F06109279
:10567000BD0306E010E02DEB33E048E451E06BE4BD
:1056800071E088E591E00E9408178091BD03815385
:10569000823030F48091BE038E3211F40C94361FA8
:1056A0006FEB71E084E794E00E9408126AEC71E00D
:1056B00084E794E00E943A0266EB72E084E794E0AB
:1056C0000E9408126DEB73E084E794E00E94DB1106
:1056D00060EA7FE080E090E00E942F060C944E1F6D
:1056E00054E0E516F10409F4EEC986E0E816F10489
:1056F00009F0AAC970E060E089E495E00E94050223
:10570000082E000C990B4FEF480FC69714F40C9419
:105710004C2156C98F929F92AF92BF92CF92DF9247
:10572000EF92FF92CF93DF93EC01688179818A81B8
:105730009B81611571058105910521F464E279ED84
:105740008BE597E02DE133EF41E050E00E94BF3060
:1057500049015A019B01AC01A7EAB1E40E94DE3085
:105760006B017C01ACEEB4EFA50194010E94EC301A
:10577000C60ED71EE81EF91EF7FE06C081E0C81A45
:10578000D108E10880E8F80AC882D982EA82FB825F
:10579000C701B6019F77DF91CF91FF90EF90DF9027
:1057A000CF90BF90AF909F908F9008958F929F92CF
:1057B000AF92BF92CF92DF92EF92FF9260913F0142
:1057C00070914001809141019091420161157105F4
:1057D0008105910521F464E279ED8BE597E02DE1F7
:1057E00033EF41E050E00E94BF3049015A019B0174
:1057F000AC01A7EAB1E40E94DE306B017C01ACEEA3
:10580000B4EFA50194010E94EC30C60ED71EE81E2D
:10581000F91EF7FE06C081E0C81AD108E10880E849
:10582000F80AC0923F01D0924001E0924101F0920B
:105830004201C701B6019F77FF90EF90DF90CF90B4
:10584000BF90AF909F908F90089560933F017093A9
:105850004001809341019093420108951F93FC0100
:1058600099278827BC01E89411911032E9F3193087
:1058700010F01E30C8F31B3251F01D3249F4689409
:1058800006C00E94702C610F711D811D911D119128
:1058900010531A30B0F33EF4909580957095619551
:1058A0007F4F8F4F9F4F1F910895FB01DC010590A3
:1058B0000D920020E1F70895FC0105900020E9F722
:1058C000809590958E0F9F1F0895BB274A3031F425
:1058D000992322F4BDE2909581959F4F0C94862CDC
:1058E000592F482F372F262F660F771F881F991F94
:1058F000660F771F881F991F620F731F841F951FE4
:10590000660F771F881F991F0895BB27FB01552736
:10591000AA27880F991FAA1FA41710F0A41B83950C
:105920005051B9F7A05DAA3308F0A95DA193009783
:1059300079F7B111B1931192CB010C94DE2EAEE048
:10594000B0E0E5EAFCE20C94FF300D891E898EE0A0
:105950008C831A8309838FEF9FE79E838D83AE012B
:10596000475E5F4F6F89788DCE0101960E94EE2CC5
:105970002F813885020F131FF80110822E96E4E064
:105980000C941B31AEE0B0E0E8ECFCE20C94FF308C
:105990008C01FA018EE08C831A83098377FF02C0A1
:1059A00060E070E8615071097E836D83A901BF01D9
:1059B000CE0101960E94EE2C4D815E8157FD0AC0FA
:1059C0002F813885421753070CF49A01020F131FD9
:1059D000F80110822E96E4E00C941B31ABE0B0E0AD
:1059E000E4EFFCE20C94F1307C013B018A01FC0104
:1059F00017821682838181FFC8C1CE0101965C01A6
:105A0000F7019381F30193FD859193FF81913F010C
:105A1000882309F453C1853239F493FD859193FFAE
:105A200081913F01853229F4B70190E00E94EE2E6A
:105A3000E7CF912C212C312CFFE1F31538F08B327C
:105A400011F190F4803209F1833229F137FC3CC026
:105A500020ED280F2A3050F536FE20C08AE0989EAF
:105A6000200D1124922E06C08D3291F0803371F7F3
:105A7000689430F8F30193FD859193FF81913F0184
:105A80008111DACF21C0689431F8689432F8F2CFEE
:105A9000689433F8EFCF689434F8ECCFEAE02E9EA8
:105AA000200D1124222E689435F8E4CF8E3229F48B
:105AB00036FC04C1689436F8DDCF8C3619F468944E
:105AC00037F8D8CF8836B1F2982F9F7D9554933010
:105AD000E0F08336A1F18337C1F1833509F063C06B
